:100000000C942A000C945C010C9434000C94340081
:100010000C9434000C9434000C9434000C94340090
:100020000C9434000C9434000C9434000C94340080
:100030000C9434000C9434000C9434000C94340070
:100040000C9434000C9434000C9434000C94340060
:100050000C94340011241FBECFE5D8E0DEBFCDBF25
:100060000E9437010C949F010C940000823419F116
:1000700018F4813439F008958334B1F1843409F4EB
:100080004CC00895613059F42AB381E090E002C079
:10009000880F991F4A95E2F7822B8ABB08952AB3ED
:1000A00081E090E002C0880F991F4A95E2F78095A1
:1000B00082238ABB0895613059F427B381E090E030
:1000C00002C0880F991F4A95E2F7822B87BB0895DB
:1000D00027B381E090E002C0880F991F4A95E2F7AC
:1000E0008095822387BB0895613059F424B381E061
:1000F00090E002C0880F991F4A95E2F7822B84BBDB
:10010000089524B381E090E002C0880F991F4A95BA
:10011000E2F78095822384BB0895613059F421B3BE
:1001200081E090E002C0880F991F4A95E2F7822B88
:1001300081BB089521B381E090E002C0880F991F30
:100140004A95E2F78095822381BB0895823419F1A4
:1001500018F4813439F008958334B1F1843409F40A
:100160004CC00895613059F42BB381E090E002C097
:10017000880F991F4A95E2F7822B8BBB08952BB30A
:1001800081E090E002C0880F991F4A95E2F78095C0
:1001900082238BBB0895613059F428B381E090E04D
:1001A00002C0880F991F4A95E2F7822B88BB0895F9
:1001B00028B381E090E002C0880F991F4A95E2F7CA
:1001C0008095822388BB0895613059F425B381E07E
:1001D00090E002C0880F991F4A95E2F7822B85BBF9
:1001E000089525B381E090E002C0880F991F4A95D9
:1001F000E2F78095822385BB0895613059F422B3DC
:1002000081E090E002C0880F991F4A95E2F7822BA7
:1002100082BB089522B381E090E002C0880F991F4D
:100220004A95E2F78095822382BB0895462F61E0CC
:100230000E9436000895CF93DF93C82FD62F0E94D7
:1002400016014D2F61E08C2F0E94A600DF91CF9107
:100250000895CF93DF93C82FD62F0E9416014D2FFC
:1002600060E08C2F0E94A600DF91CF9108957894D2
:1002700085B78D7F85BF85B78E7F85BF8BB780643F
:100280008BBF65E084E40E941B012FEF89E698E1B3
:10029000215080409040E1F700C0000065E084E418
:1002A0000E9429012FEF89E698E12150804090407B
:1002B000E1F700C00000E5CF1F920F920FB60F923A
:1002C00011242F933F934F935F936F937F938F935B
:1002D0009F93AF93BF93EF93FF9347E061E084E474
:1002E0000E94360047E061E084E40E94A6002FEF00
:1002F00089E698E1215080409040E1F700C000007D
:1003000047E060E084E40E94A6002FEF89E698E1D0
:10031000215080409040E1F700C00000FF91EF9134
:10032000BF91AF919F918F917F916F915F914F910D
:100330003F912F910F900FBE0F901F901895F8943A
:02034000FFCFED
:00000001FF
