S012000044494F5F4472697665722E737265636B
S11300000C942A000C943F000C943F000C943F0085
S11300100C943F000C943F000C943F000C943F0060
S11300200C943F000C943F000C943F000C943F0050
S11300300C943F000C943F000C943F000C943F0040
S11300400C943F000C943F000C943F000C943F0030
S11300500C943F0011241FBECFE5D8E0DEBFCDBF16
S113006010E0A0E6B0E0EEEAF1E002C005900D92E7
S1130070AA37B107D9F70E949F000C94D5000C94BD
S113008000008FE084BB8FEF85BB0895CF93DF938F
S1130090CDB7DEB760970FB6F894DEBF0FBECDBF05
S11300A080E1E0E6F0E0DE01119601900D928A9580
S11300B0E1F7E0E0F0E06FEF41E050E065BB95B3BD
S11300C09A010E2E02C0220F331F0A94E2F7822FE8
S11300D08095892385BB9C9B0DC025E030E083B3CC
S11300E090E0022E02C0959587950A94E2F780FD70
S11300F013C002C024E030E0EE0FFF1FEE0FFF1F1D
S113010081E090E08C0F9D1FE80FF91F2E0F3F1F19
S1130110F901349780810AC02F5F3F4F28303105A1
S1130120F1F63196E430F10549F68FEF60960FB69B
S1130130F894DEBF0FBECDBFDF91CF91089580EF5D
S113014081BB0E9441000E94AD000E9446008F3F87
S1130150E1F380530E94B000F8CF8FEF81BB089584
S1130160CF93DF93CDB7DEB72A970FB6F894DEBFEF
S11301700FBECDBF9AE0E0E7F0E0DE0111960190FA
S11301800D929A95E1F712BAE1E0F0E0EC0FFD1F51
S1130190E80FF11D808182BB2A960FB6F894DEBF6A
S11101A00FBECDBFDF91CF910895F894FFCF2D
S11301AE3738392F3435362A3132332D41303D2B01
S10D01BE3F065B4F666D7D477F6FBF
S9030000FC
